{
  "contractName": "Invoice",
  "abi": [
    {
      "constant": true,
      "inputs": [],
      "name": "invoiceNo",
      "outputs": [
        {
          "name": "",
          "type": "uint256"
        }
      ],
      "payable": false,
      "stateMutability": "view",
      "type": "function",
      "signature": "0x1b2d0d4c"
    },
    {
      "constant": true,
      "inputs": [
        {
          "name": "",
          "type": "uint256"
        }
      ],
      "name": "InvoiceData",
      "outputs": [
        {
          "name": "BuyerPan",
          "type": "string"
        },
        {
          "name": "SellerPan",
          "type": "string"
        },
        {
          "name": "Amount",
          "type": "int64"
        },
        {
          "name": "Time",
          "type": "uint256"
        },
        {
          "name": "PaymentStatus",
          "type": "bool"
        }
      ],
      "payable": false,
      "stateMutability": "view",
      "type": "function",
      "signature": "0xe485f454"
    },
    {
      "anonymous": false,
      "inputs": [
        {
          "indexed": false,
          "name": "BuyerPan",
          "type": "string"
        },
        {
          "indexed": false,
          "name": "SellerPan",
          "type": "string"
        },
        {
          "indexed": false,
          "name": "Amount",
          "type": "int64"
        },
        {
          "indexed": false,
          "name": "PaymentStatus",
          "type": "bool"
        }
      ],
      "name": "InvoiceGenerated",
      "type": "event",
      "signature": "0xfb79be5f129d191bc6f798123d8076d382ff341a674e66a053c119d007867d9e"
    },
    {
      "constant": false,
      "inputs": [
        {
          "name": "_buyerPan",
          "type": "string"
        },
        {
          "name": "_sellerPan",
          "type": "string"
        },
        {
          "name": "_amt",
          "type": "int64"
        },
        {
          "name": "_pmtStatus",
          "type": "bool"
        }
      ],
      "name": "generateInvoice",
      "outputs": [],
      "payable": false,
      "stateMutability": "nonpayable",
      "type": "function",
      "signature": "0xb2903dc5"
    },
    {
      "constant": true,
      "inputs": [
        {
          "name": "_invoiceNo",
          "type": "uint256"
        }
      ],
      "name": "checkPmtStatus",
      "outputs": [
        {
          "name": "",
          "type": "bool"
        }
      ],
      "payable": false,
      "stateMutability": "view",
      "type": "function",
      "signature": "0xf991bfb7"
    },
    {
      "constant": false,
      "inputs": [
        {
          "name": "_invoiceNo",
          "type": "uint256"
        }
      ],
      "name": "updatePmtStatus",
      "outputs": [],
      "payable": false,
      "stateMutability": "nonpayable",
      "type": "function",
      "signature": "0x83ceed31"
    },
    {
      "constant": true,
      "inputs": [
        {
          "name": "_buyerPan",
          "type": "string"
        }
      ],
      "name": "getBuyerInvoices",
      "outputs": [
        {
          "components": [
            {
              "name": "BuyerPan",
              "type": "string"
            },
            {
              "name": "SellerPan",
              "type": "string"
            },
            {
              "name": "Amount",
              "type": "int64"
            },
            {
              "name": "Time",
              "type": "uint256"
            },
            {
              "name": "PaymentStatus",
              "type": "bool"
            }
          ],
          "name": "",
          "type": "tuple[]"
        },
        {
          "name": "",
          "type": "uint256[]"
        }
      ],
      "payable": false,
      "stateMutability": "view",
      "type": "function",
      "signature": "0x82c9a37d"
    }
  ],
  "bytecode": "0x60806040526000805534801561001457600080fd5b50611400806100246000396000f3fe608060405260043610610078576000357c0100000000000000000000000000000000000000000000000000000000900463ffffffff1680631b2d0d4c1461007d57806382c9a37d146100a857806383ceed31146100e6578063b2903dc51461010f578063e485f45414610138578063f991bfb714610179575b600080fd5b34801561008957600080fd5b506100926101b6565b60405161009f91906112bd565b60405180910390f35b3480156100b457600080fd5b506100cf60048036036100ca9190810190610d7b565b6101bc565b6040516100dd929190611133565b60405180910390f35b3480156100f257600080fd5b5061010d60048036036101089190810190610e5b565b6104c4565b005b34801561011b57600080fd5b5061013660048036036101319190810190610dc0565b6106fd565b005b34801561014457600080fd5b5061015f600480360361015a9190810190610e5b565b6109e5565b6040516101709594939291906111dc565b60405180910390f35b34801561018557600080fd5b506101a0600480360361019b9190810190610e5b565b610b65565b6040516101ad919061116a565b60405180910390f35b60005481565b606080600084849050111515610207576040517f08c379a00000000000000000000000000000000000000000000000000000000081526004016101fe9061129d565b60405180910390fd5b606060028585604051808383808284378083019250505092505050908152602001604051809103902080548060200260200160405190810160405280929190818152602001828054801561027a57602002820191906000526020600020905b815481526020019060010190808311610266575b50505050509050606081516040519080825280602002602001820160405280156102be57816020015b6102ab610be4565b8152602001906001900390816102a35790505b50905060008090505b82518110156104b4576001600084838151811015156102e257fe5b90602001906020020151815260200190815260200160002060a06040519081016040529081600082018054600181600116156101000203166002900480601f01602080910402602001604051908101604052809291908181526020018280546001816001161561010002031660029004801561039f5780601f106103745761010080835404028352916020019161039f565b820191906000526020600020905b81548152906001019060200180831161038257829003601f168201915b50505050508152602001600182018054600181600116156101000203166002900480601f0160208091040260200160405190810160405280929190818152602001828054600181600116156101000203166002900480156104415780601f1061041657610100808354040283529160200191610441565b820191906000526020600020905b81548152906001019060200180831161042457829003601f168201915b505050505081526020016002820160009054906101000a900460070b60070b60070b8152602001600382015481526020016004820160009054906101000a900460ff161515151581525050828281518110151561049a57fe5b9060200190602002018190525080806001019150506102c7565b5080829350935050509250929050565b6000811180156104d657506000548111155b1515610517576040517f08c379a000000000000000000000000000000000000000000000000000000000815260040161050e9061127d565b60405180910390fd5b61051f610c19565b6001600083815260200190815260200160002060a06040519081016040529081600082018054600181600116156101000203166002900480601f0160208091040260200160405190810160405280929190818152602001828054600181600116156101000203166002900480156105d75780601f106105ac576101008083540402835291602001916105d7565b820191906000526020600020905b8154815290600101906020018083116105ba57829003601f168201915b50505050508152602001600182018054600181600116156101000203166002900480601f0160208091040260200160405190810160405280929190818152602001828054600181600116156101000203166002900480156106795780601f1061064e57610100808354040283529160200191610679565b820191906000526020600020905b81548152906001019060200180831161065c57829003601f168201915b505050505081526020016002820160009054906101000a900460070b60070b60070b8152602001600382015481526020016004820160009054906101000a900460ff16151515158152505090508060800151156001600084815260200190815260200160002060040160006101000a81548160ff0219169083151502179055505050565b600086869050111515610745576040517f08c379a000000000000000000000000000000000000000000000000000000000815260040161073c9061129d565b60405180910390fd5b60008484905011151561078d576040517f08c379a00000000000000000000000000000000000000000000000000000000081526004016107849061123d565b60405180910390fd5b60008260070b121515156107d6576040517f08c379a00000000000000000000000000000000000000000000000000000000081526004016107cd9061125d565b60405180910390fd5b600080815480929190600101919050555060a06040519081016040528087878080601f016020809104026020016040519081016040528093929190818152602001838380828437600081840152601f19601f82011690508083019250505050505050815260200185858080601f016020809104026020016040519081016040528093929190818152602001838380828437600081840152601f19601f8201169050808301925050505050505081526020018360070b8152602001428152602001821515815250600160008054815260200190815260200160002060008201518160000190805190602001906108cc929190610c4e565b5060208201518160010190805190602001906108e9929190610c4e565b5060408201518160020160006101000a81548167ffffffffffffffff021916908360070b67ffffffffffffffff1602179055506060820151816003015560808201518160040160006101000a81548160ff02191690831515021790555090505060028686604051808383808284378083019250505092505050908152602001604051809103902060005490806001815401808255809150509060018203906000526020600020016000909192909190915055507ffb79be5f129d191bc6f798123d8076d382ff341a674e66a053c119d007867d9e8686868686866040516109d596959493929190611185565b60405180910390a1505050505050565b6001602052806000526040600020600091509050806000018054600181600116156101000203166002900480601f016020809104026020016040519081016040528092919081815260200182805460018160011615610100020316600290048015610a915780601f10610a6657610100808354040283529160200191610a91565b820191906000526020600020905b815481529060010190602001808311610a7457829003601f168201915b505050505090806001018054600181600116156101000203166002900480601f016020809104026020016040519081016040528092919081815260200182805460018160011615610100020316600290048015610b2f5780601f10610b0457610100808354040283529160200191610b2f565b820191906000526020600020905b815481529060010190602001808311610b1257829003601f168201915b5050505050908060020160009054906101000a900460070b908060030154908060040160009054906101000a900460ff16905085565b60008082118015610b7857506000548211155b1515610bb9576040517f08c379a0000000000000000000000000000000000000000000000000000000008152600401610bb09061127d565b60405180910390fd5b6001600083815260200190815260200160002060040160009054906101000a900460ff169050919050565b60a0604051908101604052806060815260200160608152602001600060070b8152602001600081526020016000151581525090565b60a0604051908101604052806060815260200160608152602001600060070b8152602001600081526020016000151581525090565b828054600181600116156101000203166002900490600052602060002090601f016020900481019282601f10610c8f57805160ff1916838001178555610cbd565b82800160010185558215610cbd579182015b82811115610cbc578251825591602001919060010190610ca1565b5b509050610cca9190610cce565b5090565b610cf091905b80821115610cec576000816000905550600101610cd4565b5090565b90565b6000610cff8235611350565b905092915050565b6000610d13823561135c565b905092915050565b60008083601f8401121515610d2f57600080fd5b8235905067ffffffffffffffff811115610d4857600080fd5b602083019150836001820283011115610d6057600080fd5b9250929050565b6000610d738235611369565b905092915050565b60008060208385031215610d8e57600080fd5b600083013567ffffffffffffffff811115610da857600080fd5b610db485828601610d1b565b92509250509250929050565b60008060008060008060808789031215610dd957600080fd5b600087013567ffffffffffffffff811115610df357600080fd5b610dff89828a01610d1b565b9650965050602087013567ffffffffffffffff811115610e1e57600080fd5b610e2a89828a01610d1b565b94509450506040610e3d89828a01610d07565b9250506060610e4e89828a01610cf3565b9150509295509295509295565b600060208284031215610e6d57600080fd5b6000610e7b84828501610d67565b91505092915050565b6000610e8f826112f2565b80845260208401935083602082028501610ea8856112d8565b60005b84811015610ee1578383038852610ec38383516110a7565b9250610ece82611313565b9150602088019750600181019050610eab565b508196508694505050505092915050565b6000610efd826112fd565b808452602084019350610f0f836112e5565b60005b82811015610f4157610f25868351611124565b610f2e82611320565b9150602086019550600181019050610f12565b50849250505092915050565b610f568161132d565b82525050565b610f6581611339565b82525050565b6000828452602084019350610f81838584611373565b610f8a836113b5565b840190509392505050565b6000610fa082611308565b808452610fb4816020860160208601611382565b610fbd816113b5565b602085010191505092915050565b6000601282527f496e76616c69642073656c6c65722050414e00000000000000000000000000006020830152604082019050919050565b6000600e82527f496e76616c696420416d6f756e740000000000000000000000000000000000006020830152604082019050919050565b6000601382527f496e76616c696420496e766f696365204e6f2e000000000000000000000000006020830152604082019050919050565b6000601182527f496e76616c69642062757965722050414e0000000000000000000000000000006020830152604082019050919050565b600060a08301600083015184820360008601526110c48282610f95565b915050602083015184820360208601526110de8282610f95565b91505060408301516110f36040860182610f5c565b5060608301516111066060860182611124565b5060808301516111196080860182610f4d565b508091505092915050565b61112d81611346565b82525050565b6000604082019050818103600083015261114d8185610e84565b905081810360208301526111618184610ef2565b90509392505050565b600060208201905061117f6000830184610f4d565b92915050565b600060808201905081810360008301526111a081888a610f6b565b905081810360208301526111b5818688610f6b565b90506111c46040830185610f5c565b6111d16060830184610f4d565b979650505050505050565b600060a08201905081810360008301526111f68188610f95565b9050818103602083015261120a8187610f95565b90506112196040830186610f5c565b6112266060830185611124565b6112336080830184610f4d565b9695505050505050565b6000602082019050818103600083015261125681610fcb565b9050919050565b6000602082019050818103600083015261127681611002565b9050919050565b6000602082019050818103600083015261129681611039565b9050919050565b600060208201905081810360008301526112b681611070565b9050919050565b60006020820190506112d26000830184611124565b92915050565b6000602082019050919050565b6000602082019050919050565b600081519050919050565b600081519050919050565b600081519050919050565b6000602082019050919050565b6000602082019050919050565b60008115159050919050565b60008160070b9050919050565b6000819050919050565b60008115159050919050565b60008160070b9050919050565b6000819050919050565b82818337600083830152505050565b60005b838110156113a0578082015181840152602081019050611385565b838111156113af576000848401525b50505050565b6000601f19601f830116905091905056fea265627a7a72305820c893107b50a7f0172f51111ab766a0fcb85aa0cab0cba229127d82a57b3cab916c6578706572696d656e74616cf50037",
  "source": "// SPDX-License-Identifier: MIT\r\npragma solidity >=0.4.22 <0.9.0;\r\n\r\npragma experimental ABIEncoderV2;\r\n\r\ncontract Invoice {\r\n    uint public invoiceNo = 0; \r\n\r\n    struct Data{\r\n        string BuyerPan;\r\n        string SellerPan;\r\n        int64 Amount;\r\n        uint Time ;\r\n        bool PaymentStatus;\r\n    }\r\n\r\n    mapping(uint => Data) public InvoiceData;\r\n    mapping(string => uint[]) private BuyerInvoices;\r\n    \r\n\r\n    event InvoiceGenerated(\r\n        string BuyerPan,\r\n        string SellerPan,\r\n        int64 Amount,\r\n        bool PaymentStatus\r\n    );\r\n\r\n    function generateInvoice(string calldata _buyerPan, string calldata _sellerPan, int64 _amt, bool _pmtStatus) external{\r\n        require(bytes(_buyerPan).length > 0,\"Invalid buyer PAN\");\r\n        require(bytes(_sellerPan).length > 0,\"Invalid seller PAN\");\r\n        require(_amt >= 0 ,\"Invalid Amount\");\r\n\r\n        invoiceNo++;\r\n        InvoiceData[invoiceNo] = Data(_buyerPan,_sellerPan,_amt,block.timestamp,_pmtStatus);\r\n        BuyerInvoices[_buyerPan].push(invoiceNo);\r\n        emit InvoiceGenerated(\r\n            _buyerPan,\r\n            _sellerPan,\r\n            _amt,\r\n            _pmtStatus\r\n        );\r\n    }\r\n\r\n    function checkPmtStatus(uint _invoiceNo) external view returns(bool) {\r\n        require(_invoiceNo > 0 && _invoiceNo <= invoiceNo ,\"Invalid Invoice No.\");\r\n        return InvoiceData[_invoiceNo].PaymentStatus;\r\n    }\r\n\r\n    function updatePmtStatus(uint _invoiceNo) external{\r\n        require(_invoiceNo > 0 && _invoiceNo <= invoiceNo ,\"Invalid Invoice No.\");\r\n        Data memory invoiceData = InvoiceData[_invoiceNo];\r\n        InvoiceData[_invoiceNo].PaymentStatus = !invoiceData.PaymentStatus;\r\n    }\r\n\r\n    function getBuyerInvoices(string calldata _buyerPan) external view returns(Data[] memory , uint[] memory){\r\n        require(bytes(_buyerPan).length > 0,\"Invalid buyer PAN\");\r\n        uint[] memory inv = BuyerInvoices[_buyerPan];\r\n        Data[] memory invData = new Data[](inv.length);\r\n        for(uint i=0;i<inv.length;i++){\r\n            invData[i] = InvoiceData[inv[i]];\r\n        }\r\n        return (invData,inv);\r\n    }\r\n\r\n\r\n}",
  "sourcePath": "C:/Users/ankit/Desktop/block/intern/intern-project/src/contracts/Invoice.sol",
  "compiler": {
    "name": "solc",
    "version": "0.5.0+commit.1d4f565a.Emscripten.clang"
  },
  "schemaVersion": "3.0.2",
  "updatedAt": "2022-03-30T15:29:35.830Z",
  "devdoc": {
    "methods": {}
  },
  "userdoc": {
    "methods": {}
  }
}